000000000000000CADASTR1000021240021240120200805181447                                                                                                                                                                                                                                                                                                                                                                                                                                                                                                                                                 
000000000000456593387762042981350        SSP            PAADALGISA CARMEN MONTEIRO QUARESMA       05082020RUA 1º DE MAIO                CASA                          CENTRO              614   BELEM                    PA06720000099            04021979                                        MARIA AUGUSTA MONTEIRO DOS SANTOS       M                                              0370002009999999907                                                                                      00000000000321289                                                                                   
000000000000429021881962526505340        SSP            PAADRIELE KAROLINE DOS SANTOS NASCIMENTO  05082020ITAIPU                        CASA                          APEU                3     CASTANHAL                PA06874700099            11031992                                        FRANCISCA DOS S. NASCIMENTO             M                                              0370002009999999907                                                                                      00000000000156086                                                                                   
000000000000292021408112597076947        SSP            PAAGATHA VIEIRA SILVA                     05082020FIRMINO PEREIRA               CLUBE CTC                     SANTA LIDIA         370   CASTANHAL                PA06874553099            19061995                                        MARIA DE NAZARE VIEIRA DE SOUZA E SILVA M                                              0370002009999999907                                                                                      00000000000353370                                                                                   
000000000000483055404542788108958        SSP            PAAILTON GUILHERME DA SILVA MORAES        05082020J, QD 33, CONJUNTO JAPIM      CASA                          IMPERADOR           991   CASTANHAL                PA06874430199            02102000                                        WALCILENE DA SILVA                      M                                              0370002009999999907                                                                                      00000000000139433                                                                                   
000000000000297960840902065555112        SSP            PAALANNA MATOS ARAUJO                     05082020BR 316 COND. SUPER LIFE       CASA                          TITANLANDIA         202   CASTANHAL                PA06874174099            06101990                                        SELMA MARIA MATOS ARAUJO                M                                              0370002009999999907                                                                                      00000000000353794                                                                                   
000000000000284657692522003114316        SSP            PAALCILENE CONCEICAO SILVA MOREIRA        05082020OSVALDO CRUZ                  CASA                          AGUAS LINDAS        11    ANANINDEUA               PA06711827099            09011979                                        CELINA CONCEICAO SILVA                  M                                              0370025009999999907                                                                                      00000000000318446                                                                                   
000000000000451868210402495234152        SSP            PAALCILENE DA SILVA LEAL                  05082020MARIO N. RODRIGUES            ALTOS                         JARDELANDIA         71    CASTANHAL                PA06874609099            04051984                                        RAIMUNDA SILVA LEAL                     M                                              0370002009999999907                                                                                      00000000000156086                                                                                   
000000000000261010292512746344002        SSP            PAALDENISE DA SILVA SOUSA                 05082020VINTE E UM DE ABRIL           CASA                          AREA VERDE          170   SANTAREM                 PA06801701599            25061992                                        MARIA JOSE DA SILVA SOUSA               M                                              0370002009999999907                                                                                      00000000000139433                                                                                   
000000000000384949394032203917952        SSP            PAALDERI COSTA DE LIMA                    05082020TEREZINHA DA SILVA RODRIGUES (CASA                          JADERLANDIA         9     CASTANHAL                PA06874615199            24121979                                        FRANCISCA COSTA DE LIMA                 M                                              0370002009999999907                                                                                      00000000000139433                                                                                   
00000000000044995306293387166907520003   SSP            MAALDERICO DOS SANTOS SANTANA             05082020ARCO IRIS                     CASA                          JARDIM DAS ACACIAS  28    CASTANHAL                PA06874381099            05121982                                        LUZIA DOS SANTOS SANTANA                M                                              0370002009999999907                                                                                      00000000000417052                                                                                   
000000000000406780454362043713834        SSP            PAALEANDRO COSTA MAGALHAES                05082020VISCONDE DE MAUA              CASA                          CAIÇARA             16    CASTANHAL                PA06874348099            10021984                                        ANTONIA ELIZABETH COSTA MAGALHAES       M                                              0370002009999999907                                                                                      00000000000422153                                                                                   
00000000000037730145511200077048         SSP            APALESSANDRA DA SILVA PEREIRA             05082020SÃO PEDRO                     CASA                          NOVO ESTRELA        16    CASTANHAL                PA06874364899            05031971                                        ESMERALDA DA SILVA PEREIRA              M                                              0370002009999999907                                                                                      00000000000197038                                                                                   
000000000000357013587502116180185        SSP            PAALEXANDRE MORAES SILVA                  05082020CHICO BAHIA                   CASA                          APEU                49    CASTANHAL                PA06874044499            28081991                                        EDILENE MORAES DA SILVA                 M                                              0370002009999999907                                                                                      00000000000156086                                                                                   
000000000000417028240152097278096        SSP            PAALEXASSANDER WYVERSON FERREIRA CHAGAS   05082020AFONSO PEREIRA                CASA                          CRISTO REDENTOR     287   CASCAVEL                 PR06874256499            14071998                                        FRANCISCA MARIA MAIA FERREIRA           M                                              0370002009999999907                                                                                      00000000000175838                                                                                   
000000000000345880968822873937946        SSP            PAALINE KELLY QUEIROZ DE OLIVEIRA         05082020BARAO DE CAMETA               CASA                          IMPERADOR           8     CASTANHAL                PA06874439099            10051985                                        MARIA DA CONCEIÇAO DELMIRO QUEIROZ      M                                              0370002009999999907                                                                                      00000000000157729                                                                                   
000000000000402725553942494641365        SSP            PAALINE REGINA PEREIRA FEITOSA            05082020ANGELIN Q-G C-03              CASA                          NOVO ESTRELA        3     CASTANHAL                PA06874375199            20011980                                        VALMA MIRANDA PEREIRA                   M                                              0370002009999999907                                                                                      00000000000117047                                                                                   
000000000000362014799852286269285        SSP            PAALLAN CLEYTON FARIAS DOS SANTOS         05082020QUARENTA E QUATRO             CASA                          JARDIM PAULISTA     216   PAULISTA                 PE05340964099            24121992                                        ANTOMARILDO SOARES SANTOS               M                                              0370002009999999907                                                                                      00000000000141526                                                                                   
00000000000042260023856220364031736      SSP            SPALLAN DINIZ LIMA DE MENEZES             05082020PROFESSOR AMARAL              CASA                          APEU                81    CASTANHAL                PA06874165099            28021976                                        ELSE JOSEFINA RAMOS DE LIMA             M                                              0370002009999999907                                                                                      00000000000318446                                                                                   
000000000000326564194902782839343        SSP            PAALVARO NEVES MONTEIRO                   05082020PRESIDENTE KENNEDY            ALAM.JOSÉ DE ALENCAR          NOVA OLINDA         150   CASTANHAL                PA06874213599            19021975                                        FRANCELINA NEVES MONTEIRO               M                                              0370002009999999907                                                                                      00000000000198798                                                                                   
000000000000304020968442906945444        SSP            PAAMANDA LUZIA DE ASSIS NEGRAO DA SILVA   05082020MARECHAL DEODORO              CASA                          IANETAMA            358   CASTANHAL                PA06874501199            13121993                                        SONIA DOS SANTOS NEGRAO                 M                                              0370002009999999907                                                                                      00000000000150444                                                                                   
000000000000330025344702056912888        SSP            PAANA CAROLINA DE OLIVEIRA                05082020HERNANI LAMEIRA               CASA1                         CENTRO              1082  CASTANHAL                PA06874000899            03011994                                        MARIA JOANA DE OLIVEIRA                 M                                              0370002009999999907                                                                                      00000000000175838                                                                                   
000000000000432619859962003565707        SSP            PAANA CLEIA TRAVASSOS                     05082020PASSAGEM SANTA LUZIA          CASA                          CARIRI              211   CASTANHAL                PA06874036099            28071976                                        MARIA CELITA RIBEIRO SODRE              M                                              0370002009999999907                                                                                      00000000000156086                                                                                   
000000000000393013697882744752611        SSP            PAANA LAURA SOUZA                         05082020CINQUENTA E TRÊS              CASA                          AURA                9     ANANINDEUA               PA06703300499            18011993                                        JEANE BETANIA SOUZA                     M                                              0370002009999999907                                                                                      00000000000131698                                                                                   
000000000000241757402572044543498        SSP            PAANA PAULA CAVALHEIRO SOARES             05082020JOAO NASCIMENTO DE MATOS      CASA                          CRISTO REDENTOR     141   CASTANHAL                PA06874280099            08051984                                        ANTONIA LUCIA SOARES                    M                                              0370002009999999907                                                                                      00000000000343160                                                                                   
000000000000335007208182146094596        SSP            PAANA PAULA FREITAS MENDES                05082020RUA CEARÁ                     CASA                          ESTRELA             779   CASTANHAL                PA06874323299            26041991                                        VALDINETE DA SILVA FREITAS              M                                              0370002009999999907                                                                                      00000000000353370                                                                                   
000000000000318002866362475659294        SSP            PAANDREIA ZULMIRA DA SILVA DINIZ          0508202028 DE JANEIRO                 NOVA OLINDA                   NOVA OLINDA         1413  CASTANHAL                PA06874208099            27021985                                        MARIA AMELIA DA SILVA DINIZ             M                                              0370002009999999907                                                                                      00000000000150444                                                                                   
000000000000478854065382684648196        SSP            PAANTONIO EDUARDO SILVA SOUZA             05082020PROJETADA C                   CASA                          IMPERADOR           360   CASTANHAL                PA06874445599            12101983                                        MARIA LIDINEA SILVA SOUZA               M                                              0370002009999999907                                                                                      00000000000175838                                                                                   
000000000000471905848482345250682        SSP            PAANTONIO JEFERSON MEDEIROS DA CRUZ       05082020FORTALEZA                     CASA                          SANTA HELENA        6     CASTANHAL                PA06874274099            12041985                                        MARIA DE FATIMA MEDEIROS DA CRUZ        M                                              0370002009999999907                                                                                      00000000000174604                                                                                   
000000000000316593435162153115750        SSP            PAANTONIO SERGIO DE MATOS DIAS            05082020BARAO DO RIO BRANCO           CASA                          APEU                301   CASTANHAL                PA06874700099            26021974                                        MARIA HELENA MATOS                      M                                              0370002009999999907                                                                                      00000000000118323                                                                                   
000000000000332873147622874967796        SSP            PAARIVALDO ISIDIO DOS SANTOS              05082020MAXIMINO PORPINO              CASA                          PIRAPORA            710   CASTANHAL                PA06874008099            18111983                                        AMBROZINA GOMES DOS SANTOS              M                                              0370002009999999907                                                                                      00000000000101395                                                                                   
000000000000327022322562277077084        SSP            PAARLEI ROBERTO CAETANO FERREIRA FILHO    05082020RIO DE JANEIRO                CASA                          NOVA OLINDA         99    CASTANHAL                PA06874206099            06031996                                        FATIMA ELIANA FERREIRA DA SILVA         M                                              0370002009999999907                                                                                      00000000000117266                                                                                   
000000000000463031391462137502184        SSP            PABARBARA RAELY SAMPAIO DE MATOS SILVA    05082020MAJOR FRANCISCO ALVES         CASA                          CAIÇARA             758   CASTANHAL                PA06874357099            04041997                                        ELIDA CRISTINY SAMPAIO DE MATOS DA SILVAM                                              0370002009999999907                                                                                      00000000000273870                                                                                   
000000000000367038349762027719920        SSP            PABEATRIZ FREITAS DUARTE                  05082020TRANSAPEU                     RUA 103 QD 124 LT 47          SALLES JARDINS      47    CASTANHAL                PA06874700099            20021998                                        NEUCILENE FREITAS DOS REIS              M                                              0370002009999999907                                                                                      00000000000141526                                                                                   
000000000000383004014212444372933        SSP            PABHRENDA NAOMY PESSOA KLEN               05082020WE 21 QD 15 B 10              APARTAMENTO                   IPÊS ROSAS - FONTE B202   CASTANHAL                PA06874237199            06061993                                        SILVANA REGINA PESSOA                   M                                              0370002009999999907                                                                                      00000000000141526                                                                                   
000000000000368023398482884961916        SSP            PABIANCA BOTELHO CUNHA                    05082020RUA T 05 CJ CARNEIRINHO,9 QD-8CASA                          PARQUE VERDE        9     BELEM                    PA06662524899            07081992                                        NORMALINA REGIS BOTELHO DA COSTA CUNHA  M                                              0370002009999999907                                                                                      00000000000315602                                                                                   
000000000000266051460003959126291        SSP            PABRENDA SORAYA CRUZ DA SILVA             05082020JOSE DA SILVA                 CASA                          SÃO JOSE            190   CASTANHAL                PA06874413299            28071992                                        ANTONIA CRUZ DA SILVA                   M                                              0370002009999999907                                                                                      00000000000355750                                                                                   
000000000000324021666962606088345        SSP            PACARLA NAZARE GONÇALVES DE SOUZA         05082020NARIA GORETE                  CASA                          IANETAMA            1391  CASTANHAL                PA06874531099            09121989                                        RAIMUNDA GONÇALVES DE SOUZA             M                                              0370002009999999907                                                                                      00000000000139433                                                                                   
000000000000286020940272526596343        SSP            PACINTIA NAYARA COELHO MONTES             05082020ERNESTINA NEVES               CASA                          SAUDADE             60    CASTANHAL                PA06874125099            18081992                                        NESCLEIDE DO SOCORRO COELHO             M                                              0370002009999999907                                                                                      00000000000315602                                                                                   
000000000000312615039912533270248        SSP            PACLAUDIA DIANNY BARBOSA DA CRUZ          05082020LILIANE DE SOUZA              CASA                          NOVO ESTRELA        528   CASTANHAL                PA06874221399            18111978                                        MARIA BARBOSA DA CRUZ                   M                                              0370002009999999907                                                                                      00000000000304637                                                                                   
000000000000269015360202305955750        SSP            PACLAUDIA HORANA FARIAS DE OLIVEIRA       05082020XI, QD N                      CASA                          FONE BOA            25    CASTANHAL                PA06874286099            16021993                                        CLAUDIA MARIA FARIAS DE OLIVEIRA        M                                              0370002009999999907                                                                                      00000000000315602                                                                                   
000000000000425697550602783535553        SSP            PACLAUDIA SOMONE TAVARES PEREIRA          05082020DUQUE DE CAXIAS               CASA                          MARCO               1460  BELEM                    PA06609303099            14091982                                        TEREZINHA COELI TAVARES PEREIRA         M                                              0370002009999999907                                                                                      00000000000358732                                                                                   
000000000000374263044492911681508        SSP            PACLAUDIO RODRIGUES DE OLIVEIRA           05082020PASSAGEM MARIA AGUIAR         CASA                          MARCO               226   BELEM                    PA06609535099            26121967                                        ALAIR RODRIGUES DE OLIVEIRA             M                                              0370002009999999907                                                                                      00000000000155304                                                                                   
000000000000395574238492002375460        SSP            PACLEBSON BORGES DE SOUSA                 05082020C Q 11                        CASA                          JAPIN               11    CASTANHAL                PA06874300099            02051976                                        ROSA BORGES DE SOUSA                    M                                              0370002009999999907                                                                                      00000000000106257                                                                                   
000000000000396025697772006439275        SSP            PACLEYTON WALBER MACHADO PEREIRA          05082020CASTRO ALVES                  CASA                          MILAGRE             390   CASTANHAL                PA06874555099            25021994                                        ROSE MARY MACHADO PEREIRA               M                                              0370002009999999907                                                                                      00000000000108038                                                                                   
000000000000334304555372911829170        SSP            PACLISSIMARA DE CASTRO CORREA             05082020MARIA GORETE DO CARMO         CASA                          SAO JOSE            659   CASTANHAL                PA06874531099            02081969                                        IRACEMA DE CASTRO CORREA                M                                              0370002009999999907                                                                                      00000000000145784                                                                                   
000000000000474796638692914885738        SSP            PACRISTIANE MODESTO DA SILVA              05082020MARIO RODRIGUES DO NASCIMENTO Q 1, CASA                     JADERLANDIA         8     CASTANHAL                PA06874609199            30111984                                        RUTINEIA SOARES MODESTO                 M                                              0370002009999999907                                                                                      00000000000156086                                                                                   
000000000000346049234682897917475        SSP            PADANIEL DA SILVA SOUSA                   05082020ERNESTINA NEVES               CASA                          SAUDADE II          83    CASTANHAL                PA06874500099            05082001                                        MARIA IZABEL SANTOS DA SILVA            M                                              0370002009999999907                                                                                      00000000000197038                                                                                   
00000000000039822848202807452551389      SSP            SPDANILO MARIO DE JESUS                   05082020RAQUEL LEMOS                  Casa                          CAIÇARA             420   CASTANHAL                PA06874357499            16031986                                        IVANY MARIA DE JESUS                    M                                              0370002009999999907                                                                                      00000000000153765                                                                                   
000000000000309924173102875659408        SSP            PADAYANE GUEDES DE OLIVEIRA               05082020MANOEL TEIXEIRA MOTA          CASA                          SAUDADE I           1860  CASTANHAL                PA06874114299            14091990                                        SADIA GUEDES DE OLIVEIRA                M                                              0370002009999999907                                                                                      00000000000150444                                                                                   
000000000000437979386612875909803        SSP            PADEJANIRA FERREIRA PASTANA               05082020MANOEL MANOIN                 CASA                          SANTA LIDIA         338   CASTANHAL                PA06874557099            13031988                                        MARLENE FERREIRA PASTANA                M                                              0370002009999999907                                                                                      00000000000156086                                                                                   
000000000000411747883532533862386        SSP            PADENISE DE NAZARE FLEXA DOS SANTOS       05082020HELIO PINHEIRO DE ALMEIDA     CASA A                        PARQUE VERDE        19    BELEM                    PA06663504099            25101982                                        DEONICE FLEXA DOS SANTOS                M                                              0370020009999999907                                                                                      00000000000374068                                                                                   
000000000000400038348522367503817        SSP            PADHEIMY DOS SANTOS NASCIMENTO            05082020ARGENTINA                     LOTE 07; QD: M                ESTRELA             2634  CASTANHAL                PA06874223599            21071996                                        ELISABETE BARBOSA DOS SANTOS            M                                              0370002009999999907                                                                                      00000000000131698                                                                                   
000000000000418746191102304396692        SSP            PADHENY DE OLIVEIRA SOUSA                 05082020CESAR PINHEIRO                CASA                          CENTRO                    CAPANEMA                 PA06870007099            15061983                                        MARIA DAS GRAÇAS DE OLIVEIRA SOUSA      M                                              0370032009999999907                                                                                      00000000000315602                                                                                   
000000000000477042956222577917220        SSP            PADIANA MARIELE SILVA DA COSTA            05082020JOSE SOARES MELO              CASA                          MILAGRE             213   CASTANHAL                PA06874507099            05011999                                        DIAYNLEN KELENDE SOUSA SILVA            M                                              0370002009999999907                                                                                      00000000000156086                                                                                   
000000000000281987697822535925432        SSP            PADOUGLAS GALVÃO                          05082020QUATRO                        CASA                          MUTIRAO             83    ALTAMIRA                 PA06837764099            26051989                                        RAIMUNDA GALVÃO FILOMENO                M                                              0370002009999999907                                                                                      00000000000156361                                                                                   
000000000000434971856982005635959        SSP            PADULCILENE CAMPELO PEREIRA               05082020DEZENOVE DE ABRIL             CASA                          NOVO ESTRELA        78    CASTANHAL                PA06874369599            07091987                                        AURORA DO SOCORRO DE OLIVEIRA CAMPELO   M                                              0370002009999999907                                                                                      00000000000318446                                                                                   
000000000000394005853952256298074        SSP            PAEDIVANI HADRYA MACIEL DANTAS            05082020ANASTACIO MELO                CASA                          SALGADINHO          122   CASTANHAL                PA06874454099            15121989                                        SANDRA MACIEL DANTAS                    M                                              0370002009999999907                                                                                      00000000000174604                                                                                   
000000000000399695591552534053723        SSP            PAEDWIN LUISI NEGRAO MONTEIRO             05082020SN2 QUADRA 9 CONJ. TANGARAS   CASA                          FONTE BOA           30    CASTANHAL                PA06874238099            25091981                                        MARIA REGINA PINHEIRO                   M                                              0370002009999999907                                                                                      00000000000168065                                                                                   
000000000000426972313042495577438        SSP            PAELAINE FERREIRA DO NASCIMENTO           05082020RUA PROJETADA F               CONJ.VITORIA                  IMPERADOR           399   CASTANHAL                PA06874448599            13081987                                        MARIA JOSE FERREIRA DO NASCIMENTO       M                                              0370002009999999907                                                                                      00000000000156086                                                                                   
000000000000423019256732276241641        SSP            PAELANE CRISTINA MOURA MAIA               05082020FRANCISCO LAURENO             CASA                          CAIÇARA             110   CASTANHAL                PA06874359099            07031993                                        DULCICLEIDE MOURA MAIA                  M                                              0370009009999999907                                                                                      00000000000353370                                                                                   
000000000000460639252902063402797        SSP            PAELENICE DE ALEXANDRIA SILVA E SILVA     05082020ANASTACIO MELO                CASA                          SALGADINHO          33    CASTANHAL                PA06874454099            30101974                                        LUIZA LUSANIR DE A. SILVA               M                                              0370002009999999907                                                                                      00000000000156086                                                                                   
000000000000363611323812153373841        SSP            PAELICLEIDE CUNHA MOURA                   05082020TENENTE ALFREDO MARQUES       CASA                          SANTA LIDIA         477   CASTANHAL                PA06874552099            08031979                                        MARIA DE LOURDES CUNHA DO SANTOS        M                                              0370002009999999907                                                                                      00000000000158809                                                                                   
000000000000273015641092326648222        SSP            PAEMILLY CAMILLY MOREIRA DOS SANTOS       05082020OSVALDO CRUZ                  CASA                          AGUAS LINDAS        11    ANANINDEUA               PA06711827099            23081995                                        CINTHIA RODRIGUES MOREIRA               M                                              0370002009999999907                                                                                      00000000000355750                                                                                   
000000000000248950170112345242125        SSP            PAENARA FERREIRA CARDOSO                  05082020TIRADENTES                    CASA                          ESTRELA             3023  CASTANHAL                PA06874410099            03121987                                        ELIANA FERREIRA CARDOSO                 M                                              0370002009999999907                                                                                      00000000000276714                                                                                   
000000000000290029888962596998265        SSP            PAENDERSON REGO DE LIMA                   05082020M. CARNEIRO                   CASA                          IANETAMA            38    CASTANHAL                PA06874513599            15041994                                        LEDA CASTELO REGO                       M                                              0370002009999999907                                                                                      00000000000353370                                                                                   
000000000000271029647422357363318        SSP            PAERICA CRISTINA DA SILVA DUARTE          05082020TIRADENTES                    CASA                          CAIÇARA             1827  CASTANHAL                PA06874410099            12011996                                        MARIA DO CARMO TRAVASSOS DA SILVA       M                                              0370002009999999907                                                                                      00000000000117047                                                                                   
000000000000439017566622905956184        SSP            PAERICA TATIANE FERREIRA GADELHA          05082020ALAMEDA 22 DE ABRIL           CASA                          SANTA-LIDIA         312   CASTANHAL                PA06874548599            01031993                                        MARIA JULIA FERREIRA DE ABREU           M                                              0370002009999999907                                                                                      00000000000318446                                                                                   
000000000000440670352132873553962        SSP            PAERICLEIDE LOUREIRO DA SILVA             05082020PAAR QD 116 C18               CASA                          MAGUARI             18    ANANINDEUA               PA06714505699            02051981                                        ANTONIA DRAGO LOUREIRO                  M                                              0370002009999999907                                                                                      00000000000377737                                                                                   
000000000000466033599972717504882        SSP            PAEVELIN LORRANA DE LIMA GOMES            05082020MINERVINA AFONSO DE BARROS    CASA                          JADERLANDIA         16    CASTANHAL                PA06874611099            22111997                                        ROSELI MORAES DE LIMA                   M                                              0370002009999999907                                                                                      00000000000174604                                                                                   
000000000000433003345732896186302        SSP            PAFABIANA DA SILVA MONTEIRO SANTOS        05082020JOAO CANSIO SAMPAIO           CASA                          SANTA LIDIA         39    CASTANHAL                PA06874548099            15051988                                        ANA MARIA DA SILVA MONTEIRO             M                                              0370002009999999907                                                                                      00000000000156086                                                                                   
000000000000380042127172807917767        SSP            PAFABIO FLAVIO MARTINS DA ROSA            05082020MINERVINA AFONSO DE BARROS    KIT NET 01                    JADERLANDIA         3     CASTANHAL                PA06874611099            13081996                                        VIVIANE COSTA MARTINS                   M                                              0370002009999999907                                                                                      00000000000139433                                                                                   
000000000000262019392612107593006        SSP            PAFELIPE APOLIANO PIMENTA                 05082020CALDERARIO DE BRITO           CASA                          SAUDADE I           1947  CASTANHAL                PA06874107099            12011999                                        MARCIA SHEILA A. PINHEIRO               M                                              0370002009999999907                                                                                      00000000000139433                                                                                   
000000000000293005721532444774890        SSP            PAFERNANDA WINNE RODRIGUES FALCÃO         05082020MARIA CAETANO DA MOTA         APTO 011                      CAIÇARA             668   CASTANHAL                PA06874342099            25081995                                        EDERLY DA COSTA RODRIGUES               M                                              0370002009999999907                                                                                      00000000000315602                                                                                   
000000000000306017546352296637053        SSP            PAFRANCIELE FREITAS LIMA                  05082020BENEDITO MATEUS NORONHA       CASA                          MILAGRE             237   CASTANHAL                PA06874507599            02031993                                        MARIA EDILEUZA FREITAS LIMA             M                                              0370002009999999907                                                                                      00000000000168065                                                                                   
000000000000350004132572905741817        SSP            PAFRANCINETE PINHEIRO DE OLIVEIRA         05082020PROJETADA II                  CASA                          PROMISSAO           712   PARAGOMINAS              PA06862813599            01051988                                        ISABEL PINHEIRO DO NASCIMENTO           M                                              0370002009999999907                                                                                      00000000000141526                                                                                   
000000000000282524527862684588890        SSP            PAGABRIELA BRASIL DIAS                    05082020TIRADENTES                    CASA                          ESTRELA             3023  CASTANHAL                PA06874410099            14091986                                        MARILDA CABRAL BRASIL DIAS              M                                              0370002009999999907                                                                                      00000000000353370                                                                                   
000000000000283821204712155428838        SSP            PAGISELE DOS SANTOS PANTOJA               05082020HERNANI LAMEIRA               CASA                          SANTA LIDIA         929   CASTANHAL                PA06874021099            08041987                                        JANETE DOS SANTOS PANTOJA               M                                              0370002009999999907                                                                                      00000000000318446                                                                                   
000000000000356018924182906685823        SSP            PAGLEICIANE MOURA DA SILVA                05082020OYAMA                         CASA                          CRISTO REDENTOR     31    CASTANHAL                PA06874255099            11081996                                        MARIA DE MOURA SILVA                    M                                              0370002009999999907                                                                                      00000000000282707                                                                                   
000000000000452725528322534370291        SSP            PAGLEYCE CRISTINA LOURENÇO QUINTINO       05082020LOMAS VALENTINAS              ZONA RURAL                    PEDREIRA                  BELEM                    PA06608744199            01011983                                        MARIA DO SOCORRO DA SILVA LOURENÇO      M                                              0370002009999999907                                                                                      00000000000175838                                                                                   
000000000000348004863042056070079        SSP            PAHALYSON DA PAIXAO NASCIMENTO            05082020SANTA CATARINA                CASA                          SANTA HELENA        7     MARAPANIM                PA06874204099            13051988                                        ANA CRISTINA DA PAIXAO NASCIMENTO       M                                              0370002009999999907                                                                                      00000000000157729                                                                                   
000000000000339603552802303063673        SSP            PAHELANE CRISTINA DE SOUSA                05082020ROMAO FELIX NAUAR             CASA                          VILA MOCAJUBINHA          MOCAJUBA                 PA06877300099            03071978                                        MARIA HELENA DE HELENA                  M                                              0370002009999999907                                                                                      00000000000156086                                                                                   
000000000000329022272212677056415        SSP            PAIARLA RODRIGUES DE OLIVEIRA NERY        05082020WASHINGTON BASTOS             CASA                          CRISTO              223   CASTANHAL                PA06874252299            12071996                                        FRANCISCA GEORGIA DE ALENCAR RODRIGUES OM                                              0370002009999999907                                                                                      00000000000318446                                                                                   
000000000000349823969572874065322        SSP            PAILANA MARIA SANTOS RIBEIRO              05082020São José                      casa                          IANETAMA            2326  CASTANHAL                PA06874305099            28091984                                        IZAURINA DA COSTA SANTOS                M                                              0370002009999999907                                                                                      00000000000141526                                                                                   
000000000000325711618212874347775        SSP            PAILSON DE JESUS SOUSA                    05082020JOAO BATISTA                  CASA G                        ALMIR GABRIEL       31    MARITUBA                 PA06720000099            25051981                                        GREGORIA GOMES DE JESUS                 M                                              0370002009999999907                                                                                      00000000000117762                                                                                   
000000000000401032342882757334033        SSP            PAILZIANE DO ESPIRITO SANTO DA SILVA      05082020ROMAO MARTINS                 CASA                          CAICARA             734   CASTANHAL                PA06874352799            21091995                                        ILZA DO ESPIRITO SANTO                  M                                              0370002009999999907                                                                                      00000000000139433                                                                                   
000000000000268020011142657323934        SSP            PAINGRID SILVA DE OLIVEIRA                05082020ALACID NUNES                  CASA                          TENONE              2     BELEM                    PA06682002099            24071997                                        SANDRA SUELY SILVA DE OLIVEIRA          M                                              0370002009999999907                                                                                      00000000000312509                                                                                   
000000000000250630697502062489029        SSP            PAIVANEIDE DE SOUZA GUSMÃO                05082020DAS SAMAMBAIAS                CASA                          SAO JOSE            91    CASTANHAL                PA06874428099            05071975                                        RAIMUNDA DE SOUZA GUSMAO                M                                              0370002009999999907                                                                                      00000000000155304                                                                                   
000000000000476006382942826186650        SSP            PAJESSICA CRISTINA BESSA GONÇALVES        05082020LUIS BRAGA                    CASA                          APEU                176   CASTANHAL                PA06874700099            12071992                                        FATIMA CRISTINA BESSA GONÇALVES         M                                              0370002009999999907                                                                                      00000000000174604                                                                                   
000000000000298005076122646263325        SSP            PAJHONATAN DE SOUZA PASSO                 05082020ITABIRA                       CASA                          MAGUARI             120   ANANINDEUA               PA06714301099            12021992                                        IVANY CLAIDE DE SOUSA MONTEIRO          M                                              0370002009999999907                                                                                      00000000000315967                                                                                   
000000000000307029208732297026806        SSP            PAJHONIELSON BARATA FRANÇA                05082020CANTIDIO GUIMARÃES            CASA                          CURUÇA              81    CURUCA                   PA06875000099            05031992                                        MARIA DO CARMO BARATA PINHEIRO          M                                              0370002009999999907                                                                                      00000000000139433                                                                                   
000000000000461006928692205931665        SSP            PAJOAO MAURICIO SOBRINHO BORCEM           05082020MARECHAL DEODORO              CASA                          CENTRO              3877  CASTANHAL                PA06872500099            05051991                                        CLEUDANY DA SILVA SOBRINHO              M                                              0370002009999999907                                                                                      00000000000156086                                                                                   
000000000000484075892112817858855        SSP            PAJOAO PAULO DOS SANTOS SILVA             05082020ANTONIO HORACIO               CASA                          NOVA OLINDA         557   CASTANHAL                PA06874542099            07112001                                        MARLENE DOS SANTOS CORREA               M                                              0370002009999999907                                                                                      00000000000147897                                                                                   
000000000000321704259122486561072        SSP            PAJOAO PAULO FIGUEIREDO COSTA             05082020CURUÇA                        Casa                          ESTRELA             2629  CASTANHAL                PA06874321099            22081997                                        ROSANGELA MARIA FIGUEREDO ROCHA         M                                              0370002009999999907                                                                                      00000000000150444                                                                                   
000000000000353401510932539312140        SSP            PAJOCILEIDE SOARES DOS SANTOS             0508202096 VILA SAO JOSE              ZONA RURAL                    ZONA RURAL          154   CASTANHAL                PA06874800099            15111972                                        LUCIMAR SOARES DOS SANTOS               M                                              0370002009999999907                                                                                      00000000000175838                                                                                   
000000000000246933978602535245564        SSP            PAJORDANE ALLEN LOPES RAIZ                05082020Das Orquídeas                 Casa                          Estrela             8     CASTANHAL                PA06874222099            30061988                                        BALBINA LOPES PEREIRA                   M                                              0370002009999999907                                                                                      00000000000197038                                                                                   
000000000000482826098532203862395        SSP            PAJORGE ANDERSON DOS SANTOS CAETANO       05082020DELTA   CJ ZOE MGUEIROS       CASA                          TAPANA              35    BELEM                    PA06683326099            07071983                                        SONIA REJANE DOS SANTOS CAETANO         M                                              0370002009999999907                                                                                      00000000000236441                                                                                   
000000000000414939592812345227876        SSP            PAJOSE CHARLES SILVA SANTANA              0508202001, Q B                       CASA                          FONTE BOA           9     CASTANHAL                PA06874285099            25081986                                        CECILIA SILVA SANTANA                   M                                              0370002009999999907                                                                                      00000000000364420                                                                                   
000000000000244957367352535684528        SSP            PAJOSE MARIA DOS SANTOS OLIVEIRA          05082020SANTOS                        CASA                          TAPANA (ICOARACI)         BELEM                    PA06682517099            20111986                                        ANA LUCIA DOS SANTOS                    M                                              0370002009999999907                                                                                      00000000000101395                                                                                   
000000000000375011016422975235208        SSP            PAJOSÉ NETO DA CONCEIÇÃO FERREIRA         05082020VITORIA REGIA                 Nº 652, LT 12, QD 11          SAO JOSE            652   CASTANHAL                PA06874425399            04071990                                        MARIA LUCIA DA CONCEIÇÃO FERREIRA       M                                              0370002009999999907                                                                                      00000000000155304                                                                                   
000000000000323900680682045428906        SSP            PAJOSE WAYSLLAN SANTOS FERREIRA           05082020I RES. JAPIN                  CASA                          IMPERADOR           983   CASTANHAL                PA06874442099            30061987                                        MARIA LUCIA SANTOS FERREIRA             M                                              0370002009999999907                                                                                      00000000000111119                                                                                   
000000000000470394281922872482297        SSP            PAJOSE WILSON DE MATOS SOUSA              05082020RUI LUIZ DE ALMEIDA           CASA                          SAUDADE I           687   CASTANHAL                PA06874139099            13051971                                        ANTONIO DE MATOS SOUSA                  M                                              0370002009999999907                                                                                      00000000000174604                                                                                   
0000000000002599046123120437592985       SSP            PAJOSIANE DO SOCORRO PINTO MONTEIRO       05082020IPE AMARELO                   CASA                          JARDIM DOS IPES     201   EMBU DAS ARTES           SP00682436199            15041979                                        ANA ROSA MONTEIRO                       M                                              0370002009999999907                                                                                      00000000000155304                                                                                   
000000000000256002509062366179944        SSP            MAJOSIEL ALVES DUARTE                     05082020MINERVINA AFONSO DE BARROS    CASA                          JADERLANDIA               CASTANHAL                PA06874611099            07101986                                        RAIMUNDA DE FATIMA ALVES DUARTE         M                                              0370002009999999907                                                                                      00000000000139433                                                                                   
000000000000413742840882203931531        SSP            PAJOSSELHA SALGADO DA COSTA               05082020WALDIR EMIN                   CASA                          COLINA              23    IGARAPE-ACU              PA06872500099            10041981                                        LUCILA SALGADO DA COSTA                 M                                              0370002009999999907                                                                                      00000000000175838                                                                                   
000000000000264724553222204283383        SSP            PAJUCELIO BRITO E BRITO                   05082020ADELAIDE                      CASA                          PIRAPORA            81    CASTANHAL                PA06874056099            09051983                                        BENEDITA BRITO E BRITO                  M                                              0370002009999999907                                                                                      00000000000146840                                                                                   
000000000000409785854732154163951        SSP            PAKARIME ROSANGELA PITUBA E SILVA         05082020FONTE BOA (CJ PARQUE DOS CATAN Km 3                         NOVO ESTRELA        14    CASTANHAL                PA06874372699            16081984                                        MARIA JOSE PITUBA E SILVA               M                                              0370002009999999907                                                                                      00000000000318446                                                                                   
000000000000331003442252836344092        SSP            PAKARIN OHANNA LIMA MARTINS               05082020HERNANE LAMEIRA               CASA                          SAUDADE II          43    CASTANHAL                PA06874021099            16051989                                        MARIA ROSALIA LIMA MARTINS              M                                              0370002009999999907                                                                                      00000000000175838                                                                                   
000000000000379022763732106469868        SSP            PAKEILA CAROLINE CORREA FREITAS           05082020PASSAGEM ACATAUASSU NUNES     CASA                          UMARIZAU            77    BELEM                    PA06605501099            20031997                                        joelma correa freitas                   M                                              0370002009999999907                                                                                      00000000000315602                                                                                   
000000000000473377877562682441835        SSP            PAKELLY KATIUXE DE ARAUJO GALVAO          05082020SN-UM (CJ TANGARAS)           Q 12, CASA                    FONTE BOA           39    CASTANHAL                PA06874237399            22121972                                        VASTI DE ARAUJO GALVAO                  M                                              0370002009999999907                                                                                      00000000000175965                                                                                   
000000000000438721463462723385750        SSP            PAKELMA DO SOCORRO DA LUZ LEOPOLDINO      05082020ITABIRA, COND. PARK ITAOCA    BLOCO 6, AP 203               MAGUARI             120   ANANINDEUA               PA06714301099            10031978                                        MARIA INEZ DA LUZ LEOPOLDINO            M                                              0370002009999999907                                                                                      00000000000269637                                                                                   
000000000000291785555072004353428        SSP            PBKESIA COSTA DE MENEZES                  05082020PROFESSOR AMARAL              CASA                          APEÚ                81    CASTANHAL                PA06874700099            15011984                                        ELENILDE COSTA DE MENEZES               M                                              0370002009999999907                                                                                      00000000000356214                                                                                   
000000000000336637415712532610147        SSP            PAKEULY SHEILA RIBEIRO DIAS               05082020BARAO DO RIO BRANCO           CASA                          APEU                301   CASTANHAL                PA06874700099            08081977                                        SUELI DE FATIMA PINTO DE SOUSA          M                                              0370002009999999907                                                                                      00000000000156086                                                                                   
000000000000313728260373158020086        SSP            PALENILDA SOUZA SIMAS                     05082020ZACARIAS DE ASSUNÇÃO          CASA ALTOS                    DISTRITO INDUSTRIAL 77    ANANINDEUA               PA06703018099            19111974                                        ANTONIA DELMIRO SOUZA SILVA             M                                              0370002009999999907                                                                                      00000000000348563                                                                                   
000000000000479585899882872761845        SSP            PALEO JUNIOR SANTOS DO NASCIMENTO         05082020TENONE I                      QD P, CMB 124                 TENONE              5     BELEM                    PA06682001899            06021975                                        MARIA DE LOURDES SANTOS DO NASCIMENTO   M                                              0370002009999999907                                                                                      00000000000294120                                                                                   
000000000000369017687552216550819        SSP            PALETICIA DIOVANA TRAVASSOS DUARTE        05082020DRº FRANCISCO LOURENO A DE MELCASA                          JARDELANDIA         295   CASTANHAL                PA06874601299            31051993                                        ANTONIA ALVES TRAVASSOS                 M                                              0370002009999999907                                                                                      00000000000156086                                                                                   
000000000000475779708882914454062        SSP            PALIDIA PALHETA FERREIRA                  05082020JOSE DE ALENCAR               CASA                          CASTANHAL           4     CASTANHAL                PA06874123099            20051983                                        LUCILEIA PALHETA FERREIRA               M                                              0370002009999999907                                                                                      00000000000174604                                                                                   
000000000000251016535012196636854        SSP            PALUANA SANTOS DOS SANTOS                 05082020FRANCISCO LOURENO R. DE MELO  CASA                          JARDELANDIA         683   CASTANHAL                PA06874601299            09101994                                        ANA PAULA PINTO DOS SANTOS              M                                              0370002009999999907                                                                                      00000000000146840                                                                                   
000000000000301058401682468279462        SSP            PALUCAS EMANUEL DA SILVA                  05082020DO CONTORNO Q 17              CASA                          ROUXINOL            18    CASTANHAL                PA06874647599            16022002                                        SHEILA DA CONCEIÇAO DA SILVA            M                                              0370002009999999907                                                                                      00000000000150444                                                                                   
000000000000320840499362913444938        SSP            PALUCELIA LEMOS LUZ                       05082020ANGELICA                      CASA                          HELIOLANDIA         12    CASTANHAL                PA06874573499            01091977                                        ODINEIA OLIVEIRA LEMOS                  M                                              0370002009999999907                                                                                      00000000000150444                                                                                   
000000000000267425013502002602340        SSP            PALUCIANA ALVES BARBOSA                   05082020PASSAGEM MARCOS               CASA                          MARCO               24    BELEM                    PA06609558099            27041975                                        IRLETE ALVES BARBOSA                    M                                              0370002009999999907                                                                                      00000000000315602                                                                                   
000000000000296964984392205659146        SSP            PALUCICLEIDE DE SOUSA PANTOJA             05082020SANTA CLARA                   CASA                          NOVO ESTRELA        2505  CASTANHAL                PA06874327099            17081988                                        MARIA LUCIA DE SOUSA PANTOJA            M                                              0370002009999999907                                                                                      00000000000117047                                                                                   
000000000000249548141382537294898        SSP            PALUIS CARLOS DUARTE DO NASCIMENTO        05082020SANTA HELENA                  CASA                          CRISTO REDENTOR           CASTANHAL                PA06874103099            12101995                                        MARIA LUCICLEUDA OLIVEIRA DUARTE        M                                              0370002009999999907                                                                                      00000000000139433                                                                                   
000000000000372041366772357646346        SSP            PALUIS FELIPE DE SENA PINTO               05082020FLORIANO PEIXOTO              CASA                          CENTRO              2028  CASTANHAL                PA06874303099            23021999                                        FÁTIMA SENA DA CONCEIÇÃO                M                                              0370002009999999907                                                                                      00000000000315602                                                                                   
000000000000370021534172446815153        SSP            PAMALU AYUMI ALVES DOS SANTOS             05082020PADRE SALVADOR TRACCAILLE     CASA                          PIRAPORA            1335  CASTANHAL                PA06874005599            06071995                                        ALDEMIRA PINHEIRO ALVES                 M                                              0370002009999999907                                                                                      00000000000174604                                                                                   
000000000000485030859172097289568        SSP            PAMARIA ADRIANA ALVES DA SILVA            05082020RAMAL SANTA TEREZINHA         CASA                          ZONA RURAL          2     CASTANHAL                PA06874700099            15041995                                        LEONICE OLIMPIO DA SILVA                M                                              0370002009999999907                                                                                      00000000000174604                                                                                   
000000000000314603616542002704886        SSP            PAMARIA BEATRIZ SOUSA ASSUNÇAO            05082020CAPANEMA                      CASA                          ESTRELA             18    CASTANHAL                PA06874316099            21061975                                        ZOLIMA DE SOUSA ASSUNÇAO                M                                              0370002009999999907                                                                                      00000000000356140                                                                                   
000000000000364327344682041993994        SSP            PAMARIA CRISTINA LIMA LAMEIRA             05082020ALZIRA MARTINS                CASA                          APEÚ                381   CASTANHAL                PA06874053099            26081969                                        MARIA DE NAZARÉ SILVA LIMA              M                                              0370002009999999907                                                                                      00000000000141526                                                                                   
000000000000441861119902255203317        SSP            PAMARIA DA SILVA SOUSA                    05082020LUIZ BRAGA                    CASA                          APEU                68    CASTANHAL                PA06874043799            09031983                                        CLARICE DA SILVA SOUSA                  M                                              0370002009999999907                                                                                      00000000000175838                                                                                   
000000000000279794552802304515307        SSP            PAMARIA DO SOCORRO SILVA SOUZA            05082020NOVE DE JANEIRO               CASA                          UMARIZAL            266   BELEM                    PA06606037099            03011983                                        MARIA ANICETA FATIMA SOUZA              M                                              0370002009999999907                                                                                      00000000000139433                                                                                   
000000000000300751050472493501907        SSP            PAMARIA ELZANI LIMA NATIVIDADE            05082020MARECHAL DEODORO              CASA                          IANETAMA            275   CASTANHAL                PA06874569099            11051979                                        RAIMUNDA LIMA NATIVIDADE                M                                              0370002009999999907                                                                                      00000000000168065                                                                                   
000000000000287940257462044460603        SSP            PAMARIA EUDILENE GAMA DA SILVA            05082020JOSE QUEIROZ DE MIRANDA       CASA                          AMERICANO           1690  SANTA ISABEL DO PARA     PA06879000099            25061982                                        MARIA JOSE GAMA DA SILVA                M                                              0370002009999999907                                                                                      00000000000174604                                                                                   
000000000000462423294692682179567        SSP            PAMARIA FERREIRA MARTINS                  05082020DUQUE DE CAXIAS               CASA                          SAUDADE I           791   CASTANHAL                PA06874136099            21011971                                        MARIA FERREIRA                          M                                              0370002009999999907                                                                                      00000000000156086                                                                                   
000000000000390018771182817135136        SSP            PAMARIA GABRIELA SELEIRO DOS SANTOS DIAS  05082020SEBASTIÃO SOUZA               CASA                          AGUAS BRANCAS       44    CASTANHAL                PA06703365599            07021995                                        ROSANGELA ANDREA VIEIRA SELEIRO         M                                              0370002009999999907                                                                                      00000000000131698                                                                                   
000000000000435668375702003592897        SSP            PAMARIA IVANILDE BATISTA DA SILVA         05082020CONTORNO                      CASA                          JARDELANDIA         20    CASTANHAL                PA06874647599            29121977                                        ENAIDE BATISTA DA COSTA                 M                                              0370002009999999907                                                                                      00000000000156086                                                                                   
000000000000416925726932915067146        SSP            MTMARIZIA VIVIANE RODRIGUES DOS SANTOS    05082020MARECHAL DEODORO              LT 09, QD 05                  IANETAMA            16    CASTANHAL                PA06874569099            21091987                                        MARLENE SILVA RODRIGUES                 M                                              0370002009999999907                                                                                      00000000000315602                                                                                   
000000000000385831736412725139441        SSP            PAMARLEY KELBIAN REIS VALENTE             05082020Passagem Castro Alves         Casa                          Campina de Icoaraci 53    BELEM                    PA06681500599            24031985                                        FATIMA DO SOCORRO REIS VALENTE          M                                              0370002009999999907                                                                                      00000000000354476                                                                                   
000000000000344027046322436636746        SSP            PAMATEUS HENRIQUE TRAJANO BRASIL          050820201º DE MAIO                    CASA                          NOVO ESTRELA        4067  CASTANHAL                PA06874304099            21121996                                        ADRIANA CRISTINA TRAJANO DA CONCEIÇAO BRM                                              0370005009999999907                                                                                      00000000000141526                                                                                   
000000000000567016959862457235893        SSP            PAMATTHEUS LUCAS NEVES DE CARVALHO        05082020TRAVESSA WE-20                CONJ. CIDADE NOVA II          CIDADE NOVA         371   ANANINDEUA               PA06713048099            10041996                                        DEBORA DO SOCORRO CORDEIRO NEVES        M                                              0370014009999999907                                                                                      00000000000235938                                                                                   
000000000000245001307622106125943        SSP            PAMAX MAURO SILVA E SILVA                 05082020EDMUNDO FREITAS               RES. PARQ. DOS BURIT          NOVO ESTRELA        36    CASTANHAL                PA06874365399            15111989                                        LUCINEIDE MOTA DA SILVA                 M                                              0370002009999999907                                                                                      00000000000169736                                                                                   
00000000000031704984255250324418649      SSP            PAMEDIÃ DOS SANTOS PINHEIRO SARAIVA       05082020AUGUSTO FILHO                 CASA                          RODOVIARIO                CURUCA                   PA06875000099            02011997                                        ENEIDA DOS S. P. SARAIVA                M                                              0370002009999999907                                                                                      00000000000147897                                                                                   
000000000000252936311542913741747        SSP            PANAIARA DE OLIVEIRA NASCIMENTO           05082020JOAQUIM DE MATOS              CASA                          VILA PACUAQUARA     187   CASTANHAL                PA06874700099            04021987                                        NELES ARLINDA DE OLIVEIRA NASCIMENTO    M                                              0370002009999999907                                                                                      00000000000139433                                                                                   
000000000000347844989602975813369        SSP            PANATHALIA MINELLE NOJOSA IPIRANGA        05082020CURUÇA                        CONJ. OSASCO II               ESTRELA             4     CASTANHAL                PA06874321099            30111982                                        MARIA DAS GRAÇAS N. IPIRANGA            M                                              0370002009999999907                                                                                      00000000000141526                                                                                   
000000000000288013203522786674199        SSP            PANATHASHA YDRESS AGUIAR GOMES            05082020PADRE CICERO                  CASA                          SÃO JOSÉ            498   CASTANHAL                PA06874347099            18081992                                        MARIA VERLUCE AGUIAR                    M                                              0370002009999999907                                                                                      00000000000353370                                                                                   
000000000000442015259612766929865        SSP            PANAYLA DA SILVA BEZERRA                  05082020MARIA DE NAZARE SILVA ROCHA   CASA                          CRISTO REDENTOR     1     CASTANHAL                PA06874103099            06121990                                        RAIMUNDACELMA DA SILVA BEZERRA          M                                              0370002009999999907                                                                                      00000000000175838                                                                                   
000000000000319015065382406016861        SSP            PANELSON DE SOUSA FERNANDES               05082020HERNANE LAMEIRA               CASA                          MILAGRE             733   CASTANHAL                PA06874539099            28071990                                        CREUSA ESIQUIEL DE SOUSA                M                                              0370002009999999907                                                                                      00000000000150444                                                                                   
000000000000260629067042533437381        SSP            PAONILTON MONTEIRO DE MONTEIRO            05082020DOUTOR ADAILSON DA SILVA RODRICASA                          JADERLANDIA         139   CASTANHAL                PA06874602599            28021978                                        MARIA ATAIDE M. DOS SANTOS              M                                              0370002009999999907                                                                                      00000000000108802                                                                                   
000000000000486702246222427689821        SSP            PAORIVAN FERREIRA SOUZA                   05082020SN-UM (CJ TANGARAS)           QD 10, LT 13, CASA            FONTE BOA           13    CASTANHAL                PA06874237399            04111997                                        CREUZA MACIEL FERREIRA                  M                                              0370002009999999907                                                                                      00000000000147897                                                                                   
000000000000365012805872296232290        SSP            PAORLANDO DE ARAUJO MOREIRA NETO          05082020CORONEL LEAL                  CASA                          NOVA OLINDA         749   CASTANHAL                PA06874245099            17101992                                        MARLENE GOMES DE ARAUJO                 M                                              0370002009999999907                                                                                      00000000000141526                                                                                   
000000000000340657450942493420973        SSP            PAORNILZA DE SOUZA BRITO LIMA             05082020ELIAS LEITÃO                  CASA                          VILA NOVA           290   SAO FRANCISCO DO PARA    PA06874800099            11021980                                        MARIA DAS NEVES DE SOUZA BRITO          M                                              0370002009999999907                                                                                      00000000000356214                                                                                   
000000000000247730569012004045766        SSP            PAOSVALDINA FERREIRA PEREIRA              05082020Tiradentes                    Casa                          Estrela             1905  CASTANHAL                PA06874410099            27111979                                        EROTILDE FERREIRA PEREIRA               M                                              0370002009999999907                                                                                      00000000000131698                                                                                   
000000000000295037761292807685979        SSP            PAPATRICIA DOS SANTOS GOMES               05082020FRANCISCO A. L. MELO          CASA                          JADERLANDIA         480   CASTANHAL                PA06874601299            30061998                                        IZETE DOS SANTOS GOMES                  M                                              0370002009999999907                                                                                      00000000000135406                                                                                   
000000000000355620098502202488906        SSP            PAPAULO ROGERIO DOS REIS                  05082020ANASTACIO MELO                CASA                          SALGADINHO          184   CASTANHAL                PA06874454099            05071975                                        FRANCISCA MARIA DA C. REIS              M                                              0370002009999999907                                                                                      00000000000175838                                                                                   
000000000000257148188172871856034        SSP            PAPAULO SERGIO ALMEIDA PINHEIRO           05082020WE 79, QD 01                  CASA                          CIDADE NOVA VII     3     ANANINDEUA               PA06714020099            01091962                                        PAULA ALMEIDA PINHEIRO                  M                                              0370002009999999907                                                                                      00000000000147168                                                                                   
000000000000253287251742151575239        SSP            PAPEDRO DAS NEVES SANTANA                 05082020CASTRO ALVES                  CASA                          MILAGRE             85    CASTANHAL                PA06874555099            03121966                                        MARIA DAS NEVES SANTANA                 M                                              0370002009999999907                                                                                      00000000000155304                                                                                   
000000000000274042745162026130903203     SSP            RSPEDRO JOSE SOUSA NORONHA                05082020ANITA GARIBALDI               CASA                          NILAGRE             105   CASTANHAL                PA06874556099            08091997                                        FRANCISCA ROSIVALDA SOUSA E SILVA       M                                              0370002009999999907                                                                                      00000000000117047                                                                                   
000000000000243697709563682809058        SSP            PAPEDRO SERGIO DE SOUSA REIS              05082020VITORIA REGIA                 CASA                          APEÚ                423   CASTANHAL                PA06874043299            31011975                                        ONEDINA DE SOUSA REIS                   M                                              0370002009999999907                                                                                      00000000000108038                                                                                   
000000000000427015936192357077253        SSP            PARAELYN AMORIM GAMA                      05082020MANOEL N. MARTINS             CASA                          SAO JOSE            5     CASTANHAL                PA06874419599            16101995                                        RAIMUNDA DE AMORIM GAMA                 M                                              0370002009999999907                                                                                      00000000000315602                                                                                   
000000000000333034209562587372259        SSP            PARAFAEL LOPES DA PAZ                     05082020SANTA CECILIA                 CASA                          JARDIM MODELO       888   CASTANHAL                PA06874700099            11031997                                        RAIMUNDA TRINDADE DE OLIVEIRA LOPES     M                                              0370002009999999907                                                                                      00000000000150444                                                                                   
000000000000571060176742008557671        SSP            PARAFAELA ALMEIDA DA SILVA                05082020FRANCISCO PEREIRA DA SILVA    QD 56, LT 04                  JADERLANDIA         349   CASTANHAL                PA06874603099            28092001                                        SILMARA PEREIRA DE ALMEIDA              M                                              0370002009999999907                                                                                      00000000000103488                                                                                   
000000000000371970003452685326477        SSP            PARAFAELA LIMA DE SOUZA                   05082020JOSE SEVERIANO SANTOS         CASA                          ANAISE              901   SAO FRANCISCO DO PARA    PA06874800099            11121993                                        VANIA RAQUEL ALVES DE LIMA              M                                              0370026009999999907                                                                                      00000000000353370                                                                                   
000000000000277010017942816503253        SSP            PARAQUEL BRITO DOS SANTOS                 05082020ANTONIO FERNANDES SOBRINHO    CASA                          CAICARA             82    CASTANHAL                PA06874341599            03081991                                        ARLETE DA SILVA BRITO                   M                                              0370002009999999907                                                                                      00000000000147897                                                                                   
000000000000263000704302335065763        SSP            PARAQUEL MONTEIRO NASCIMENTO AMORIM       05082020SAMAMBAIA                     CASA                          SAMAMBAIA           497   CAPANEMA                 PA06870029099            07061989                                        ROSÂNGELA MORAES DA SILVA               M                                              0370002009999999907                                                                                      00000000000139433                                                                                   
000000000000254463589002344372730        SSP            PARAQUEL WARISS DOS REIS MAIA             05082020BENEDITO MATEUS NORONHA       CASA                          SANTA LIDIA         407   CASTANHAL                PA06874507599            28121975                                        RAIMUNDA WARISS DOS REIS                M                                              0370002009999999907                                                                                      00000000000146840                                                                                   
000000000000431045458412108143734        SSP            PARAYARA DE NAZARE DE SOUZA ROCHA         05082020MANOEL PINTO DA SILVA         CASA                          BETANIA             529   CASTANHAL                PA06874162799            11101998                                        HELEN CRISTINA RESSURREIÇAO DE SOUZA    M                                              0370002009999999907                                                                                      00000000000156086                                                                                   
000000000000456009483992106450384        SSP            PARENATA SOUSA DE OLIVEIRA                05082020TRAV VILETA                   CASA                          PEDREIRA            795   BELEM                    PA06608742299            09081990                                        ANTONIA FERREIRA DE SOUSA               M                                              0370002009999999907                                                                                      00000000000315602                                                                                   
000000000000337630536082003307697        SSP            PARENILDES DO SOCORRO SILVA GOMES         05082020FELIPE DE PAULA               CASA                          AMERICANO           267   SANTA ISABEL DO PARA     PA06879200099            11041969                                        MARIA CELIA DOS ANJOS                   M                                              0370002009999999907                                                                                      00000000000156086                                                                                   
000000000000428770036082004429710        SSP            PARENILSON MARTINS DE ARAUJO              05082020CIPRIANO MENDES RODRIGUES     CASA                          SAO MIGUEL DO GUAMA 4     SAO MIGUEL DO GUAMA      PA06866000099            13111982                                        MARIA MARTINS DE ARAUJO                 M                                              0370002009999999907                                                                                      00000000000174604                                                                                   
000000000000568844574572725088385        SSP            PARICELIA DA SILVA PANTOJA                05082020CAPITAO BARROSO               CASA                          SANTA LÍDIA         5     CASTANHAL                PA06874000199            22011987                                        IRACELIA RODRIGUES DA SILVA             M                                              0370002009999999907                                                                                      00000000000149711                                                                                   
000000000000382609069522042994290        SSP            PARINALDO ALMEIDA CORDEIRO                05082020CONJ-PARQUE VERDE RUA 1       CASA                          PARQUE VERDE        25    BELEM                    PA06663507099            23071977                                        MARIA DA GLORIA ALMEIDA CORDEIRO        M                                              0370002009999999907                                                                                      00000000000359057                                                                                   
000000000000408001889812255271486        SSP            PAROBSON BRITO CARDOSO                    05082020PADRE CICERO                  CASA                          CAIÇARA             125   CASTANHAL                PA06874347099            29061985                                        ELIANA MARIA RIBEIRO BRITO              M                                              0370002009999999907                                                                                      00000000000156086                                                                                   
