000000000000000CADASTR1000021240021240120200805181447                                                                                                                                                                                                                                                                                                                                                                                                                                                                                                                                                 
000000000000358607990642203695924        SSP            PANARMY DE PAULA SILVA                    05082020FRANCISCO ALVES               CASA                          CAICARA             762   CASTANHAL                PA06874357099            09111977                                        ROSA DE PAULA SILVA                     M                                              0370002009999999907                                                                                      00000000000141526                                                                                   
0000000000004070758070462514624676       SSP            MGTHIAGO LACERDA JORGE                    05082020BR 316, COND. SUPER LIFE      BL 42, APTO 404               TITANLANDIA         404   CASTANHAL                PA06874174099            03061987                                        NOEMIA L. DE FIGUEREDO JORGE            M                                              0370002009999999907                                                                                      00000000000321289                                                                                   
000000000000455593387762042981350        SSP            PAADALGISA CARMEN MONTEIRO QUARESMA       05082020RUA 1ยบ DE MAIO                CASA                          CENTRO              614   BELEM                    PA06720000099            04021979                                        MARIA AUGUSTA MONTEIRO DOS SANTOS       M                                              0370002009999999907                                                                                      00000000000321289                                                                                   
000000000000456009483992106450384        SSP            PARENATA SOUSA DE OLIVEIRA                05082020TRAV VILETA                   CASA                          PEDREIRA            795   BELEM                    PA06608742299            09081990                                        ANTONIA FERREIRA DE SOUSA               M                                              0370002009999999907                                                                                      00000000000315602                                                                                   
999999999999999000006                                                                                                                                                                                                                                                                                                                                                                                                                                                                                                                                                                                 